:020000040000FA
:100000008312AF01AD0116282F08303E840000088E
:10001000AD002D08000203180F280008AD00840A67
:100020001430303E0402031C09286A283030840052
:10003000840A0008AC0084030008840A2C02031818
:10004000292884030008AB002C088000840A2B08B0
:100050008000840A2F08143C303E0402031C192837
:10006000AF0A14302F02031C16286A28303084008F
:10007000840A0008AC0084032C080002840A0318D8
:10008000492884030008AB002C088000840A2B0850
:100090008000840A2F08143C303E0402031C3928D7
:1000A000AF0A14302F02031C36286A28A101A001D0
:1000B0002F08303E84007F300002031862280008B9
:1000C000A00764280008A107840A1430303E040207
:0800D000031C5B28AF01AD0128
:00000001FF
