:020000040000FA
:1000000043288312030111308400000889008316FD
:1000100008148312080892000301303E110784007F
:1000200012088000910A11308400000810020319A0
:100030004828012840301107840011088000910AE7
:100040001108013E1002031C26281A289101403095
:100050001107840000089200831211088900920899
:10006000880083168B13081555308900AA30890043
:100070008814881C3C2839288B17910A1108100213
:10008000031D27284D280301053E900091010128FA
:0C0090000301063E900091011A280000B8
:0A420000420053005500490052002F
:00000001FF
